{
  "_format": "hh-sol-artifact-1",
  "contractName": "Multisig",
  "sourceName": "contracts/multisig.sol",
  "abi": [
    {
      "inputs": [
        {
          "internalType": "uint8",
          "name": "_quorum",
          "type": "uint8"
        },
        {
          "internalType": "address[]",
          "name": "_validSigners",
          "type": "address[]"
        }
      ],
      "stateMutability": "nonpayable",
      "type": "constructor"
    },
    {
      "inputs": [],
      "name": "approveNewQuorum",
      "outputs": [],
      "stateMutability": "nonpayable",
      "type": "function"
    },
    {
      "inputs": [
        {
          "internalType": "uint256",
          "name": "_txId",
          "type": "uint256"
        }
      ],
      "name": "approveTx",
      "outputs": [],
      "stateMutability": "nonpayable",
      "type": "function"
    },
    {
      "inputs": [
        {
          "internalType": "address",
          "name": "",
          "type": "address"
        }
      ],
      "name": "approvers",
      "outputs": [
        {
          "internalType": "bool",
          "name": "",
          "type": "bool"
        }
      ],
      "stateMutability": "view",
      "type": "function"
    },
    {
      "inputs": [],
      "name": "getPendingTx",
      "outputs": [
        {
          "components": [
            {
              "internalType": "uint256",
              "name": "id",
              "type": "uint256"
            },
            {
              "internalType": "uint256",
              "name": "amount",
              "type": "uint256"
            },
            {
              "internalType": "address",
              "name": "sender",
              "type": "address"
            },
            {
              "internalType": "address",
              "name": "recipient",
              "type": "address"
            },
            {
              "internalType": "bool",
              "name": "isCompleted",
              "type": "bool"
            },
            {
              "internalType": "uint256",
              "name": "timestamp",
              "type": "uint256"
            },
            {
              "internalType": "uint256",
              "name": "noOfApproval",
              "type": "uint256"
            },
            {
              "internalType": "address",
              "name": "tokenAddress",
              "type": "address"
            },
            {
              "internalType": "address[]",
              "name": "transactionSigners",
              "type": "address[]"
            }
          ],
          "internalType": "struct Multisig.Transaction[]",
          "name": "",
          "type": "tuple[]"
        }
      ],
      "stateMutability": "view",
      "type": "function"
    },
    {
      "inputs": [
        {
          "internalType": "address",
          "name": "",
          "type": "address"
        },
        {
          "internalType": "uint256",
          "name": "",
          "type": "uint256"
        }
      ],
      "name": "hasSigned",
      "outputs": [
        {
          "internalType": "bool",
          "name": "",
          "type": "bool"
        }
      ],
      "stateMutability": "view",
      "type": "function"
    },
    {
      "inputs": [
        {
          "internalType": "address",
          "name": "",
          "type": "address"
        }
      ],
      "name": "hasSignedQuorum",
      "outputs": [
        {
          "internalType": "bool",
          "name": "",
          "type": "bool"
        }
      ],
      "stateMutability": "view",
      "type": "function"
    },
    {
      "inputs": [
        {
          "internalType": "address",
          "name": "",
          "type": "address"
        }
      ],
      "name": "isValidSigner",
      "outputs": [
        {
          "internalType": "bool",
          "name": "",
          "type": "bool"
        }
      ],
      "stateMutability": "view",
      "type": "function"
    },
    {
      "inputs": [],
      "name": "noOfValidSigners",
      "outputs": [
        {
          "internalType": "uint8",
          "name": "",
          "type": "uint8"
        }
      ],
      "stateMutability": "view",
      "type": "function"
    },
    {
      "inputs": [],
      "name": "pendingQuorumChange",
      "outputs": [
        {
          "internalType": "uint8",
          "name": "newQuorum",
          "type": "uint8"
        },
        {
          "internalType": "uint256",
          "name": "approvals",
          "type": "uint256"
        }
      ],
      "stateMutability": "view",
      "type": "function"
    },
    {
      "inputs": [],
      "name": "quorum",
      "outputs": [
        {
          "internalType": "uint8",
          "name": "",
          "type": "uint8"
        }
      ],
      "stateMutability": "view",
      "type": "function"
    },
    {
      "inputs": [],
      "name": "quorumChangeRequested",
      "outputs": [
        {
          "internalType": "bool",
          "name": "",
          "type": "bool"
        }
      ],
      "stateMutability": "view",
      "type": "function"
    },
    {
      "inputs": [
        {
          "internalType": "uint256",
          "name": "",
          "type": "uint256"
        }
      ],
      "name": "transactions",
      "outputs": [
        {
          "internalType": "uint256",
          "name": "id",
          "type": "uint256"
        },
        {
          "internalType": "uint256",
          "name": "amount",
          "type": "uint256"
        },
        {
          "internalType": "address",
          "name": "sender",
          "type": "address"
        },
        {
          "internalType": "address",
          "name": "recipient",
          "type": "address"
        },
        {
          "internalType": "bool",
          "name": "isCompleted",
          "type": "bool"
        },
        {
          "internalType": "uint256",
          "name": "timestamp",
          "type": "uint256"
        },
        {
          "internalType": "uint256",
          "name": "noOfApproval",
          "type": "uint256"
        },
        {
          "internalType": "address",
          "name": "tokenAddress",
          "type": "address"
        }
      ],
      "stateMutability": "view",
      "type": "function"
    },
    {
      "inputs": [
        {
          "internalType": "uint256",
          "name": "_amount",
          "type": "uint256"
        },
        {
          "internalType": "address",
          "name": "_recipient",
          "type": "address"
        },
        {
          "internalType": "address",
          "name": "_tokenAddress",
          "type": "address"
        }
      ],
      "name": "transfer",
      "outputs": [],
      "stateMutability": "nonpayable",
      "type": "function"
    },
    {
      "inputs": [],
      "name": "txCount",
      "outputs": [
        {
          "internalType": "uint256",
          "name": "",
          "type": "uint256"
        }
      ],
      "stateMutability": "view",
      "type": "function"
    },
    {
      "inputs": [
        {
          "internalType": "uint8",
          "name": "_newQuorum",
          "type": "uint8"
        }
      ],
      "name": "updateQuorum",
      "outputs": [],
      "stateMutability": "nonpayable",
      "type": "function"
    }
  ],
  "bytecode": "0x60806040523480156200001157600080fd5b5060405162002f7f38038062002f7f83398181016040528101906200003791906200064e565b8051600060016101000a81548160ff021916908360ff1602179055506001600060019054906101000a900460ff1660ff1611620000ab576040517f08c379a0000000000000000000000000000000000000000000000000000000008152600401620000a29062000715565b60405180910390fd5b60018260ff1611620000f4576040517f08c379a0000000000000000000000000000000000000000000000000000000008152600401620000eb9062000787565b60405180910390fd5b60005b8151811015620002c057600073ffffffffffffffffffffffffffffffffffffffff168282815181106200012f576200012e620007a9565b5b602002602001015173ffffffffffffffffffffffffffffffffffffffff160362000190576040517f08c379a0000000000000000000000000000000000000000000000000000000008152600401620001879062000828565b60405180910390fd5b60026000838381518110620001aa57620001a9620007a9565b5b602002602001015173ffffffffffffffffffffffffffffffffffffffff1673ffffffffffffffffffffffffffffffffffffffff16815260200190815260200160002060009054906101000a900460ff16156200023d576040517f08c379a000000000000000000000000000000000000000000000000000000000815260040162000234906200089a565b60405180910390fd5b600160026000848481518110620002595762000258620007a9565b5b602002602001015173ffffffffffffffffffffffffffffffffffffffff1673ffffffffffffffffffffffffffffffffffffffff16815260200190815260200160002060006101000a81548160ff0219169083151502179055508080600101915050620000f7565b50600260003373ffffffffffffffffffffffffffffffffffffffff1673ffffffffffffffffffffffffffffffffffffffff16815260200190815260200160002060009054906101000a900460ff16620003a5576001600260003373ffffffffffffffffffffffffffffffffffffffff1673ffffffffffffffffffffffffffffffffffffffff16815260200190815260200160002060006101000a81548160ff0219169083151502179055506001600060018282829054906101000a900460ff166200038c9190620008eb565b92506101000a81548160ff021916908360ff1602179055505b600060019054906101000a900460ff1660ff168260ff16111562000400576040517f08c379a0000000000000000000000000000000000000000000000000000000008152600401620003f7906200099d565b60405180910390fd5b816000806101000a81548160ff021916908360ff1602179055505050620009bf565b6000604051905090565b600080fd5b600080fd5b600060ff82169050919050565b6200044e8162000436565b81146200045a57600080fd5b50565b6000815190506200046e8162000443565b92915050565b600080fd5b6000601f19601f8301169050919050565b7f4e487b7100000000000000000000000000000000000000000000000000000000600052604160045260246000fd5b620004c48262000479565b810181811067ffffffffffffffff82111715620004e657620004e56200048a565b5b80604052505050565b6000620004fb62000422565b9050620005098282620004b9565b919050565b600067ffffffffffffffff8211156200052c576200052b6200048a565b5b602082029050602081019050919050565b600080fd5b600073ffffffffffffffffffffffffffffffffffffffff82169050919050565b60006200056f8262000542565b9050919050565b620005818162000562565b81146200058d57600080fd5b50565b600081519050620005a18162000576565b92915050565b6000620005be620005b8846200050e565b620004ef565b90508083825260208201905060208402830185811115620005e457620005e36200053d565b5b835b81811015620006115780620005fc888262000590565b845260208401935050602081019050620005e6565b5050509392505050565b600082601f83011262000633576200063262000474565b5b815162000645848260208601620005a7565b91505092915050565b600080604083850312156200066857620006676200042c565b5b600062000678858286016200045d565b925050602083015167ffffffffffffffff8111156200069c576200069b62000431565b5b620006aa858286016200061b565b9150509250929050565b600082825260208201905092915050565b7f6665772076616c6964207369676e657273000000000000000000000000000000600082015250565b6000620006fd601183620006b4565b91506200070a82620006c5565b602082019050919050565b600060208201905081810360008301526200073081620006ee565b9050919050565b7f71756f72756d20697320746f6f20736d616c6c00000000000000000000000000600082015250565b60006200076f601383620006b4565b91506200077c8262000737565b602082019050919050565b60006020820190508181036000830152620007a28162000760565b9050919050565b7f4e487b7100000000000000000000000000000000000000000000000000000000600052603260045260246000fd5b7f7a65726f2061646472657373206e6f7420616c6c6f7765640000000000000000600082015250565b600062000810601883620006b4565b91506200081d82620007d8565b602082019050919050565b60006020820190508181036000830152620008438162000801565b9050919050565b7f7369676e657220616c7265616479206578697374730000000000000000000000600082015250565b600062000882601583620006b4565b91506200088f826200084a565b602082019050919050565b60006020820190508181036000830152620008b58162000873565b9050919050565b7f4e487b7100000000000000000000000000000000000000000000000000000000600052601160045260246000fd5b6000620008f88262000436565b9150620009058362000436565b9250828201905060ff811115620009215762000920620008bc565b5b92915050565b7f71756f72756d2067726561746572207468616e2076616c6964207369676e657260008201527f7300000000000000000000000000000000000000000000000000000000000000602082015250565b600062000985602183620006b4565b9150620009928262000927565b604082019050919050565b60006020820190508181036000830152620009b88162000976565b9050919050565b6125b080620009cf6000396000f3fe608060405234801561001057600080fd5b50600436106100f55760003560e01c80636b00e5b711610097578063ccb570e311610066578063ccb570e31461027e578063d40cfc511461029a578063d5f50582146102b6578063e95597fc146102e6576100f5565b80636b00e5b7146101ee57806379abb0b11461020d57806396704f6e146102175780639ace38c214610247576100f5565b80631703a018116100d35780631703a0181461016457806317eff51b146101825780633c540687146101a05780635952dd90146101be576100f5565b80630476ac11146100fa5780630a144391146101185780631087393a14610148575b600080fd5b610102610304565b60405161010f91906117dd565b60405180910390f35b610132600480360381019061012d919061185b565b610317565b60405161013f91906117dd565b60405180910390f35b610162600480360381019061015d91906118be565b610337565b005b61016c61083d565b6040516101799190611907565b60405180910390f35b61018a61084e565b6040516101979190611907565b60405180910390f35b6101a8610861565b6040516101b59190611931565b60405180910390f35b6101d860048036038101906101d3919061194c565b610867565b6040516101e591906117dd565b60405180910390f35b6101f6610896565b60405161020492919061198c565b60405180910390f35b6102156108b5565b005b610231600480360381019061022c919061185b565b610bba565b60405161023e91906117dd565b60405180910390f35b610261600480360381019061025c91906118be565b610bda565b6040516102759897969594939291906119c4565b60405180910390f35b61029860048036038101906102939190611a42565b610c8f565b005b6102b460048036038101906102af9190611ac1565b611115565b005b6102d060048036038101906102cb919061185b565b611357565b6040516102dd91906117dd565b60405180910390f35b6102ee611377565b6040516102fb9190611d51565b60405180910390f35b600960009054906101000a900460ff1681565b60066020528060005260406000206000915054906101000a900460ff1681565b60006003600083815260200190815260200160002090506000816000015403610395576040517f08c379a000000000000000000000000000000000000000000000000000000000815260040161038c90611dd0565b60405180910390fd5b80600101548160060160009054906101000a900473ffffffffffffffffffffffffffffffffffffffff1673ffffffffffffffffffffffffffffffffffffffff166370a08231306040518263ffffffff1660e01b81526004016103f79190611df0565b602060405180830381865afa158015610414573d6000803e3d6000fd5b505050506040513d601f19601f820116820180604052508101906104389190611e20565b1015610479576040517f08c379a000000000000000000000000000000000000000000000000000000000815260040161047090611e99565b60405180910390fd5b8060030160149054906101000a900460ff16156104cb576040517f08c379a00000000000000000000000000000000000000000000000000000000081526004016104c290611f05565b60405180910390fd5b60008054906101000a900460ff1660ff16816005015410610521576040517f08c379a000000000000000000000000000000000000000000000000000000000815260040161051890611f71565b60405180910390fd5b600260003373ffffffffffffffffffffffffffffffffffffffff1673ffffffffffffffffffffffffffffffffffffffff16815260200190815260200160002060009054906101000a900460ff166105ad576040517f08c379a00000000000000000000000000000000000000000000000000000000081526004016105a490611fdd565b60405180910390fd5b600460003373ffffffffffffffffffffffffffffffffffffffff1673ffffffffffffffffffffffffffffffffffffffff168152602001908152602001600020600083815260200190815260200160002060009054906101000a900460ff161561064b576040517f08c379a000000000000000000000000000000000000000000000000000000000815260040161064290612049565b60405180910390fd5b6001600460003373ffffffffffffffffffffffffffffffffffffffff1673ffffffffffffffffffffffffffffffffffffffff168152602001908152602001600020600084815260200190815260200160002060006101000a81548160ff02191690831515021790555060018160050160008282546106c99190612098565b9250508190555080600701339080600181540180825580915050600190039060005260206000200160009091909190916101000a81548173ffffffffffffffffffffffffffffffffffffffff021916908373ffffffffffffffffffffffffffffffffffffffff16021790555060008054906101000a900460ff1660ff168160050154036108395760018160030160146101000a81548160ff0219169083151502179055508060060160009054906101000a900473ffffffffffffffffffffffffffffffffffffffff1673ffffffffffffffffffffffffffffffffffffffff1663a9059cbb8260030160009054906101000a900473ffffffffffffffffffffffffffffffffffffffff1683600101546040518363ffffffff1660e01b81526004016107f49291906120cc565b6020604051808303816000875af1158015610813573d6000803e3d6000fd5b505050506040513d601f19601f820116820180604052508101906108379190612121565b505b5050565b60008054906101000a900460ff1681565b600060019054906101000a900460ff1681565b60015481565b60046020528160005260406000206020528060005260406000206000915091509054906101000a900460ff1681565b60078060000160009054906101000a900460ff16908060010154905082565b600960009054906101000a900460ff16610904576040517f08c379a00000000000000000000000000000000000000000000000000000000081526004016108fb9061219a565b60405180910390fd5b600073ffffffffffffffffffffffffffffffffffffffff163373ffffffffffffffffffffffffffffffffffffffff1603610973576040517f08c379a000000000000000000000000000000000000000000000000000000000815260040161096a90612206565b60405180910390fd5b600260003373ffffffffffffffffffffffffffffffffffffffff1673ffffffffffffffffffffffffffffffffffffffff16815260200190815260200160002060009054906101000a900460ff166109ff576040517f08c379a00000000000000000000000000000000000000000000000000000000081526004016109f690612272565b60405180910390fd5b600660003373ffffffffffffffffffffffffffffffffffffffff1673ffffffffffffffffffffffffffffffffffffffff16815260200190815260200160002060009054906101000a900460ff1615610a8c576040517f08c379a0000000000000000000000000000000000000000000000000000000008152600401610a83906122de565b60405180910390fd5b6000610a96611377565b5114610ad7576040517f08c379a0000000000000000000000000000000000000000000000000000000008152600401610ace9061234a565b60405180910390fd5b600160076001016000828254610aed9190612098565b925050819055506001600660003373ffffffffffffffffffffffffffffffffffffffff1673ffffffffffffffffffffffffffffffffffffffff16815260200190815260200160002060006101000a81548160ff02191690831515021790555060008054906101000a900460ff1660ff1660076001015410610bb057600760000160009054906101000a900460ff166000806101000a81548160ff021916908360ff1602179055506000600960006101000a81548160ff0219169083151502179055505b610bb86116a2565b565b60056020528060005260406000206000915054906101000a900460ff1681565b60036020528060005260406000206000915090508060000154908060010154908060020160009054906101000a900473ffffffffffffffffffffffffffffffffffffffff16908060030160009054906101000a900473ffffffffffffffffffffffffffffffffffffffff16908060030160149054906101000a900460ff16908060040154908060050154908060060160009054906101000a900473ffffffffffffffffffffffffffffffffffffffff16905088565b600073ffffffffffffffffffffffffffffffffffffffff163373ffffffffffffffffffffffffffffffffffffffff1603610cfe576040517f08c379a0000000000000000000000000000000000000000000000000000000008152600401610cf590612206565b60405180910390fd5b600260003373ffffffffffffffffffffffffffffffffffffffff1673ffffffffffffffffffffffffffffffffffffffff16815260200190815260200160002060009054906101000a900460ff16610d8a576040517f08c379a0000000000000000000000000000000000000000000000000000000008152600401610d8190612272565b60405180910390fd5b60008311610dcd576040517f08c379a0000000000000000000000000000000000000000000000000000000008152600401610dc4906123b6565b60405180910390fd5b600073ffffffffffffffffffffffffffffffffffffffff168273ffffffffffffffffffffffffffffffffffffffff1603610e3c576040517f08c379a0000000000000000000000000000000000000000000000000000000008152600401610e3390612206565b60405180910390fd5b600073ffffffffffffffffffffffffffffffffffffffff168173ffffffffffffffffffffffffffffffffffffffff1603610eab576040517f08c379a0000000000000000000000000000000000000000000000000000000008152600401610ea290612206565b60405180910390fd5b828173ffffffffffffffffffffffffffffffffffffffff166370a08231306040518263ffffffff1660e01b8152600401610ee59190611df0565b602060405180830381865afa158015610f02573d6000803e3d6000fd5b505050506040513d601f19601f82011682018060405250810190610f269190611e20565b1015610f67576040517f08c379a0000000000000000000000000000000000000000000000000000000008152600401610f5e90611e99565b60405180910390fd5b600060018054610f779190612098565b905060006003600083815260200190815260200160002090506001806000828254610fa29190612098565b92505081905550818160000181905550848160010181905550838160030160006101000a81548173ffffffffffffffffffffffffffffffffffffffff021916908373ffffffffffffffffffffffffffffffffffffffff160217905550338160020160006101000a81548173ffffffffffffffffffffffffffffffffffffffff021916908373ffffffffffffffffffffffffffffffffffffffff160217905550428160040181905550828160060160006101000a81548173ffffffffffffffffffffffffffffffffffffffff021916908373ffffffffffffffffffffffffffffffffffffffff16021790555060018160050160008282546110a29190612098565b9250508190555080600701339080600181540180825580915050600190039060005260206000200160009091909190916101000a81548173ffffffffffffffffffffffffffffffffffffffff021916908373ffffffffffffffffffffffffffffffffffffffff1602179055505050505050565b600073ffffffffffffffffffffffffffffffffffffffff163373ffffffffffffffffffffffffffffffffffffffff1603611184576040517f08c379a000000000000000000000000000000000000000000000000000000000815260040161117b90612206565b60405180910390fd5b600260003373ffffffffffffffffffffffffffffffffffffffff1673ffffffffffffffffffffffffffffffffffffffff16815260200190815260200160002060009054906101000a900460ff16611210576040517f08c379a000000000000000000000000000000000000000000000000000000000815260040161120790612272565b60405180910390fd5b600060019054906101000a900460ff1660ff168160ff161115611268576040517f08c379a000000000000000000000000000000000000000000000000000000000815260040161125f90612448565b60405180910390fd5b600960009054906101000a900460ff16156112b8576040517f08c379a00000000000000000000000000000000000000000000000000000000081526004016112af906124b4565b60405180910390fd5b6001600960006101000a81548160ff02191690831515021790555080600760000160006101000a81548160ff021916908360ff16021790555060016007600101819055506001600660003373ffffffffffffffffffffffffffffffffffffffff1673ffffffffffffffffffffffffffffffffffffffff16815260200190815260200160002060006101000a81548160ff02191690831515021790555050565b60026020528060005260406000206000915054906101000a900460ff1681565b6060600080600190505b60015481116113d4576003600082815260200190815260200160002060030160149054906101000a900460ff166113c15781806113bd906124d4565b9250505b80806113cc906124d4565b915050611381565b5060008167ffffffffffffffff8111156113f1576113f061251c565b5b60405190808252806020026020018201604052801561142a57816020015b611417611732565b81526020019060019003908161140f5790505b509050600080600190505b6001548111611698576003600082815260200190815260200160002060030160149054906101000a900460ff1661168557600360008281526020019081526020016000206040518061012001604052908160008201548152602001600182015481526020016002820160009054906101000a900473ffffffffffffffffffffffffffffffffffffffff1673ffffffffffffffffffffffffffffffffffffffff1673ffffffffffffffffffffffffffffffffffffffff1681526020016003820160009054906101000a900473ffffffffffffffffffffffffffffffffffffffff1673ffffffffffffffffffffffffffffffffffffffff1673ffffffffffffffffffffffffffffffffffffffff1681526020016003820160149054906101000a900460ff1615151515815260200160048201548152602001600582015481526020016006820160009054906101000a900473ffffffffffffffffffffffffffffffffffffffff1673ffffffffffffffffffffffffffffffffffffffff1673ffffffffffffffffffffffffffffffffffffffff1681526020016007820180548060200260200160405190810160405280929190818152602001828054801561164f57602002820191906000526020600020905b8160009054906101000a900473ffffffffffffffffffffffffffffffffffffffff1673ffffffffffffffffffffffffffffffffffffffff1681526020019060010190808311611605575b50505050508152505083838151811061166b5761166a61254b565b5b60200260200101819052508180611681906124d4565b9250505b8080611690906124d4565b915050611435565b5081935050505090565b60005b600060019054906101000a900460ff1660ff16811015611724576000600560003373ffffffffffffffffffffffffffffffffffffffff1673ffffffffffffffffffffffffffffffffffffffff16815260200190815260200160002060006101000a81548160ff02191690831515021790555080806001019150506116a5565b506000600760010181905550565b6040518061012001604052806000815260200160008152602001600073ffffffffffffffffffffffffffffffffffffffff168152602001600073ffffffffffffffffffffffffffffffffffffffff1681526020016000151581526020016000815260200160008152602001600073ffffffffffffffffffffffffffffffffffffffff168152602001606081525090565b60008115159050919050565b6117d7816117c2565b82525050565b60006020820190506117f260008301846117ce565b92915050565b600080fd5b600073ffffffffffffffffffffffffffffffffffffffff82169050919050565b6000611828826117fd565b9050919050565b6118388161181d565b811461184357600080fd5b50565b6000813590506118558161182f565b92915050565b600060208284031215611871576118706117f8565b5b600061187f84828501611846565b91505092915050565b6000819050919050565b61189b81611888565b81146118a657600080fd5b50565b6000813590506118b881611892565b92915050565b6000602082840312156118d4576118d36117f8565b5b60006118e2848285016118a9565b91505092915050565b600060ff82169050919050565b611901816118eb565b82525050565b600060208201905061191c60008301846118f8565b92915050565b61192b81611888565b82525050565b60006020820190506119466000830184611922565b92915050565b60008060408385031215611963576119626117f8565b5b600061197185828601611846565b9250506020611982858286016118a9565b9150509250929050565b60006040820190506119a160008301856118f8565b6119ae6020830184611922565b9392505050565b6119be8161181d565b82525050565b6000610100820190506119da600083018b611922565b6119e7602083018a611922565b6119f460408301896119b5565b611a0160608301886119b5565b611a0e60808301876117ce565b611a1b60a0830186611922565b611a2860c0830185611922565b611a3560e08301846119b5565b9998505050505050505050565b600080600060608486031215611a5b57611a5a6117f8565b5b6000611a69868287016118a9565b9350506020611a7a86828701611846565b9250506040611a8b86828701611846565b9150509250925092565b611a9e816118eb565b8114611aa957600080fd5b50565b600081359050611abb81611a95565b92915050565b600060208284031215611ad757611ad66117f8565b5b6000611ae584828501611aac565b91505092915050565b600081519050919050565b600082825260208201905092915050565b6000819050602082019050919050565b611b2381611888565b82525050565b611b328161181d565b82525050565b611b41816117c2565b82525050565b600081519050919050565b600082825260208201905092915050565b6000819050602082019050919050565b6000611b7f8383611b29565b60208301905092915050565b6000602082019050919050565b6000611ba382611b47565b611bad8185611b52565b9350611bb883611b63565b8060005b83811015611be9578151611bd08882611b73565b9750611bdb83611b8b565b925050600181019050611bbc565b5085935050505092915050565b600061012083016000830151611c0f6000860182611b1a565b506020830151611c226020860182611b1a565b506040830151611c356040860182611b29565b506060830151611c486060860182611b29565b506080830151611c5b6080860182611b38565b5060a0830151611c6e60a0860182611b1a565b5060c0830151611c8160c0860182611b1a565b5060e0830151611c9460e0860182611b29565b50610100830151848203610100860152611cae8282611b98565b9150508091505092915050565b6000611cc78383611bf6565b905092915050565b6000602082019050919050565b6000611ce782611aee565b611cf18185611af9565b935083602082028501611d0385611b0a565b8060005b85811015611d3f5784840389528151611d208582611cbb565b9450611d2b83611ccf565b925060208a01995050600181019050611d07565b50829750879550505050505092915050565b60006020820190508181036000830152611d6b8184611cdc565b905092915050565b600082825260208201905092915050565b7f696e76616c696420747820696400000000000000000000000000000000000000600082015250565b6000611dba600d83611d73565b9150611dc582611d84565b602082019050919050565b60006020820190508181036000830152611de981611dad565b9050919050565b6000602082019050611e0560008301846119b5565b92915050565b600081519050611e1a81611892565b92915050565b600060208284031215611e3657611e356117f8565b5b6000611e4484828501611e0b565b91505092915050565b7f696e73756666696369656e742066756e64730000000000000000000000000000600082015250565b6000611e83601283611d73565b9150611e8e82611e4d565b602082019050919050565b60006020820190508181036000830152611eb281611e76565b9050919050565b7f7472616e73616374696f6e20616c726561647920636f6d706c65746564000000600082015250565b6000611eef601d83611d73565b9150611efa82611eb9565b602082019050919050565b60006020820190508181036000830152611f1e81611ee2565b9050919050565b7f617070726f76616c7320616c7265616479207265616368656400000000000000600082015250565b6000611f5b601983611d73565b9150611f6682611f25565b602082019050919050565b60006020820190508181036000830152611f8a81611f4e565b9050919050565b7f6e6f7420612076616c6964207369676e65720000000000000000000000000000600082015250565b6000611fc7601283611d73565b9150611fd282611f91565b602082019050919050565b60006020820190508181036000830152611ff681611fba565b9050919050565b7f63616e2774207369676e20747769636500000000000000000000000000000000600082015250565b6000612033601083611d73565b915061203e82611ffd565b602082019050919050565b6000602082019050818103600083015261206281612026565b9050919050565b7f4e487b7100000000000000000000000000000000000000000000000000000000600052601160045260246000fd5b60006120a382611888565b91506120ae83611888565b92508282019050808211156120c6576120c5612069565b5b92915050565b60006040820190506120e160008301856119b5565b6120ee6020830184611922565b9392505050565b6120fe816117c2565b811461210957600080fd5b50565b60008151905061211b816120f5565b92915050565b600060208284031215612137576121366117f8565b5b60006121458482850161210c565b91505092915050565b7f4e6f2071756f72756d206368616e676520726571756573746564000000000000600082015250565b6000612184601a83611d73565b915061218f8261214e565b602082019050919050565b600060208201905081810360008301526121b381612177565b9050919050565b7f61646472657373207a65726f20666f756e640000000000000000000000000000600082015250565b60006121f0601283611d73565b91506121fb826121ba565b602082019050919050565b6000602082019050818103600083015261221f816121e3565b9050919050565b7f696e76616c6964207369676e6572000000000000000000000000000000000000600082015250565b600061225c600e83611d73565b915061226782612226565b602082019050919050565b6000602082019050818103600083015261228b8161224f565b9050919050565b7f43616e277420617070726f766520747769636500000000000000000000000000600082015250565b60006122c8601383611d73565b91506122d382612292565b602082019050919050565b600060208201905081810360008301526122f7816122bb565b9050919050565b7f536f6d65207472616e73616374696f6e73206f6e676f696e6700000000000000600082015250565b6000612334601983611d73565b915061233f826122fe565b602082019050919050565b6000602082019050818103600083015261236381612327565b9050919050565b7f63616e27742073656e64207a65726f20616d6f756e7400000000000000000000600082015250565b60006123a0601683611d73565b91506123ab8261236a565b602082019050919050565b600060208201905081810360008301526123cf81612393565b9050919050565b7f71756f72756d2067726561746572207468616e2076616c6964207369676e657260008201527f7300000000000000000000000000000000000000000000000000000000000000602082015250565b6000612432602183611d73565b915061243d826123d6565b604082019050919050565b6000602082019050818103600083015261246181612425565b9050919050565b7f71756f72756d206368616e676520616c72656164792072657175657374656400600082015250565b600061249e601f83611d73565b91506124a982612468565b602082019050919050565b600060208201905081810360008301526124cd81612491565b9050919050565b60006124df82611888565b91507fffffffffffffffffffffffffffffffffffffffffffffffffffffffffffffffff820361251157612510612069565b5b600182019050919050565b7f4e487b7100000000000000000000000000000000000000000000000000000000600052604160045260246000fd5b7f4e487b7100000000000000000000000000000000000000000000000000000000600052603260045260246000fdfea26469706673582212208846bfbc215da5f65e7a36f9e5b45b4679a598cb2d6f936e99285d9945aefcea64736f6c63430008180033",
  "linkReferences": {},
  "deployedLinkReferences": {}
}